{
  "contractName": "Funder",
  "abi": [
    {
      "inputs": [],
      "name": "numOfFunders",
      "outputs": [
        {
          "internalType": "uint256",
          "name": "",
          "type": "uint256"
        }
      ],
      "stateMutability": "view",
      "type": "function",
      "constant": true
    },
    {
      "stateMutability": "payable",
      "type": "receive",
      "payable": true
    },
    {
      "inputs": [],
      "name": "transfer",
      "outputs": [],
      "stateMutability": "payable",
      "type": "function",
      "payable": true
    },
    {
      "inputs": [
        {
          "internalType": "uint256",
          "name": "withdrawAmount",
          "type": "uint256"
        }
      ],
      "name": "withdraw",
      "outputs": [],
      "stateMutability": "nonpayable",
      "type": "function"
    }
  ],
  "bytecode": "0x608060405234801561001057600080fd5b50610366806100206000396000f3fe6080604052600436106100385760003560e01c80632e1a7d4d146100445780638a4068dd1461006d578063af7f2c9b146100775761003f565b3661003f57005b600080fd5b34801561005057600080fd5b5061006b600480360381019061006691906101e4565b6100a2565b005b610075610137565b005b34801561008357600080fd5b5061008c6101a3565b6040516100999190610220565b60405180910390f35b671bc16d674ec800008111156100ed576040517f08c379a00000000000000000000000000000000000000000000000000000000081526004016100e490610298565b60405180910390fd5b3373ffffffffffffffffffffffffffffffffffffffff166108fc829081150290604051600060405180830381858888f19350505050158015610133573d6000803e3d6000fd5b5050565b33600160008054815260200190815260200160002060006101000a81548173ffffffffffffffffffffffffffffffffffffffff021916908373ffffffffffffffffffffffffffffffffffffffff16021790555060008081548092919061019c906102e7565b9190505550565b60005481565b600080fd5b6000819050919050565b6101c1816101ae565b81146101cc57600080fd5b50565b6000813590506101de816101b8565b92915050565b6000602082840312156101fa576101f96101a9565b5b6000610208848285016101cf565b91505092915050565b61021a816101ae565b82525050565b60006020820190506102356000830184610211565b92915050565b600082825260208201905092915050565b7f43616e6e6f74207769746864726177206d6f7265207468616e20322045544800600082015250565b6000610282601f8361023b565b915061028d8261024c565b602082019050919050565b600060208201905081810360008301526102b181610275565b9050919050565b7f4e487b7100000000000000000000000000000000000000000000000000000000600052601160045260246000fd5b60006102f2826101ae565b91507fffffffffffffffffffffffffffffffffffffffffffffffffffffffffffffffff821415610325576103246102b8565b5b60018201905091905056fea26469706673582212200ea5bb733ceb8083ab3f05bf78752accb8577619113effebaa126b931631247364736f6c63430008090033",
  "immutableReferences": {},
  "source": "// SPDX-License-Identifier: MIT\r\npragma solidity >=0.4.22 <0.9.0;\r\n\r\ncontract Funder{\r\n    uint public numOfFunders;\r\n\r\n    mapping(uint=>address) private funders;\r\n\r\n    receive() external payable{}\r\n\r\n    function transfer() external payable {\r\n        funders[numOfFunders] = msg.sender;\r\n        numOfFunders++;\r\n    }\r\n\r\n    function withdraw(uint withdrawAmount) external{\r\n        require(withdrawAmount <= 2000000000000000000, \"Cannot withdraw more than 2 ETH\");\r\n        payable(msg.sender).transfer(withdrawAmount);\r\n    }\r\n}\r\n    ",
  "sourcePath": "D:\\tasks\\Ethereum\\fund\\contracts\\funder.sol",
  "compiler": {
    "name": "solc",
    "version": "0.8.9+commit.e5eed63a.Emscripten.clang"
  },
  "schemaVersion": "3.4.4",
  "updatedAt": "2022-03-10T11:56:59.507Z",
  "networkType": "ethereum",
  "devdoc": {
    "kind": "dev",
    "methods": {},
    "version": 1
  },
  "userdoc": {
    "kind": "user",
    "methods": {},
    "version": 1
  }
}